{
  "contractName": "Equivalents",
  "abi": [
    {
      "constant": true,
      "inputs": [],
      "name": "countRecords",
      "outputs": [
        {
          "name": "",
          "type": "uint64"
        }
      ],
      "payable": false,
      "stateMutability": "view",
      "type": "function",
      "signature": "0xe4673a4e"
    },
    {
      "inputs": [],
      "payable": false,
      "stateMutability": "nonpayable",
      "type": "constructor",
      "signature": "constructor"
    },
    {
      "anonymous": false,
      "inputs": [
        {
          "indexed": false,
          "name": "index",
          "type": "uint64"
        },
        {
          "indexed": false,
          "name": "name",
          "type": "string"
        },
        {
          "indexed": false,
          "name": "description",
          "type": "string"
        }
      ],
      "name": "Added",
      "type": "event",
      "signature": "0x31e879e40d1d4e34297b79d1a5f14ec958a0d0409e2b4daa372f0814aa6f5286"
    },
    {
      "anonymous": false,
      "inputs": [
        {
          "indexed": false,
          "name": "index",
          "type": "uint64"
        },
        {
          "indexed": false,
          "name": "name",
          "type": "string"
        },
        {
          "indexed": false,
          "name": "description",
          "type": "string"
        }
      ],
      "name": "EditedDescription",
      "type": "event",
      "signature": "0x90351d6a0c03c0c670ce269f65d0ea1e33368fa12d2228217722dbeff23c8096"
    },
    {
      "constant": true,
      "inputs": [
        {
          "name": "index",
          "type": "uint64"
        }
      ],
      "name": "getRecord",
      "outputs": [
        {
          "name": "",
          "type": "address"
        },
        {
          "name": "",
          "type": "string"
        },
        {
          "name": "",
          "type": "string"
        }
      ],
      "payable": false,
      "stateMutability": "view",
      "type": "function",
      "signature": "0x30bd23bb"
    },
    {
      "constant": false,
      "inputs": [
        {
          "name": "name",
          "type": "string"
        },
        {
          "name": "description",
          "type": "string"
        }
      ],
      "name": "add",
      "outputs": [],
      "payable": false,
      "stateMutability": "nonpayable",
      "type": "function",
      "signature": "0xebdf86ca"
    },
    {
      "constant": false,
      "inputs": [
        {
          "name": "index",
          "type": "uint64"
        },
        {
          "name": "name",
          "type": "string"
        },
        {
          "name": "description",
          "type": "string"
        }
      ],
      "name": "edit",
      "outputs": [],
      "payable": false,
      "stateMutability": "nonpayable",
      "type": "function",
      "signature": "0x92bca274"
    }
  ],
  "bytecode": "0x608060405234801561001057600080fd5b506000600160006101000a81548167ffffffffffffffff021916908367ffffffffffffffff160217905550610cb78061004a6000396000f3fe608060405234801561001057600080fd5b5060043610610069576000357c01000000000000000000000000000000000000000000000000000000009004806330bd23bb1461006e57806392bca274146101be578063e4673a4e14610324578063ebdf86ca14610356575b600080fd5b6100a46004803603602081101561008457600080fd5b81019080803567ffffffffffffffff1690602001909291905050506104a8565b604051808473ffffffffffffffffffffffffffffffffffffffff1673ffffffffffffffffffffffffffffffffffffffff1681526020018060200180602001838103835285818151815260200191508051906020019080838360005b8381101561011a5780820151818401526020810190506100ff565b50505050905090810190601f1680156101475780820380516001836020036101000a031916815260200191505b50838103825284818151815260200191508051906020019080838360005b83811015610180578082015181840152602081019050610165565b50505050905090810190601f1680156101ad5780820380516001836020036101000a031916815260200191505b509550505050505060405180910390f35b610322600480360360608110156101d457600080fd5b81019080803567ffffffffffffffff1690602001909291908035906020019064010000000081111561020557600080fd5b82018360208201111561021757600080fd5b8035906020019184600183028401116401000000008311171561023957600080fd5b91908080601f016020809104026020016040519081016040528093929190818152602001838380828437600081840152601f19601f8201169050808301925050505050505091929192908035906020019064010000000081111561029c57600080fd5b8201836020820111156102ae57600080fd5b803590602001918460018302840111640100000000831117156102d057600080fd5b91908080601f016020809104026020016040519081016040528093929190818152602001838380828437600081840152601f19601f82011690508083019250505050505050919291929050505061068e565b005b61032c6108eb565b604051808267ffffffffffffffff1667ffffffffffffffff16815260200191505060405180910390f35b6104a66004803603604081101561036c57600080fd5b810190808035906020019064010000000081111561038957600080fd5b82018360208201111561039b57600080fd5b803590602001918460018302840111640100000000831117156103bd57600080fd5b91908080601f016020809104026020016040519081016040528093929190818152602001838380828437600081840152601f19601f8201169050808301925050505050505091929192908035906020019064010000000081111561042057600080fd5b82018360208201111561043257600080fd5b8035906020019184600183028401116401000000008311171561045457600080fd5b91908080601f016020809104026020016040519081016040528093929190818152602001838380828437600081840152601f19601f820116905080830192505050505050509192919290505050610905565b005b60006060806000808567ffffffffffffffff1667ffffffffffffffff16815260200190815260200160002060000160009054906101000a900473ffffffffffffffffffffffffffffffffffffffff166000808667ffffffffffffffff1667ffffffffffffffff1681526020019081526020016000206001016000808767ffffffffffffffff1667ffffffffffffffff168152602001908152602001600020600201818054600181600116156101000203166002900480601f0160208091040260200160405190810160405280929190818152602001828054600181600116156101000203166002900480156105de5780601f106105b3576101008083540402835291602001916105de565b820191906000526020600020905b8154815290600101906020018083116105c157829003601f168201915b50505050509150808054600181600116156101000203166002900480601f01602080910402602001604051908101604052809291908181526020018280546001816001161561010002031660029004801561067a5780601f1061064f5761010080835404028352916020019161067a565b820191906000526020600020905b81548152906001019060200180831161065d57829003601f168201915b505050505090509250925092509193909250565b600160009054906101000a900467ffffffffffffffff1667ffffffffffffffff168367ffffffffffffffff16106106c457600080fd5b3373ffffffffffffffffffffffffffffffffffffffff166000808567ffffffffffffffff1667ffffffffffffffff16815260200190815260200160002060000160009054906101000a900473ffffffffffffffffffffffffffffffffffffffff1673ffffffffffffffffffffffffffffffffffffffff161461074557600080fd5b816000808567ffffffffffffffff1667ffffffffffffffff1681526020019081526020016000206001019080519060200190610782929190610b66565b50806000808567ffffffffffffffff1667ffffffffffffffff16815260200190815260200160002060020190805190602001906107c0929190610b66565b507f90351d6a0c03c0c670ce269f65d0ea1e33368fa12d2228217722dbeff23c8096838383604051808467ffffffffffffffff1667ffffffffffffffff1681526020018060200180602001838103835285818151815260200191508051906020019080838360005b83811015610843578082015181840152602081019050610828565b50505050905090810190601f1680156108705780820380516001836020036101000a031916815260200191505b50838103825284818151815260200191508051906020019080838360005b838110156108a957808201518184015260208101905061088e565b50505050905090810190601f1680156108d65780820380516001836020036101000a031916815260200191505b509550505050505060405180910390a1505050565b600160009054906101000a900467ffffffffffffffff1681565b6000600160009054906101000a900467ffffffffffffffff16905060018060009054906101000a900467ffffffffffffffff1601600160006101000a81548167ffffffffffffffff021916908367ffffffffffffffff16021790555060405180606001604052803373ffffffffffffffffffffffffffffffffffffffff168152602001848152602001838152506000808367ffffffffffffffff1667ffffffffffffffff16815260200190815260200160002060008201518160000160006101000a81548173ffffffffffffffffffffffffffffffffffffffff021916908373ffffffffffffffffffffffffffffffffffffffff1602179055506020820151816001019080519060200190610a1b929190610be6565b506040820151816002019080519060200190610a38929190610be6565b509050507f31e879e40d1d4e34297b79d1a5f14ec958a0d0409e2b4daa372f0814aa6f5286818484604051808467ffffffffffffffff1667ffffffffffffffff1681526020018060200180602001838103835285818151815260200191508051906020019080838360005b83811015610abe578082015181840152602081019050610aa3565b50505050905090810190601f168015610aeb5780820380516001836020036101000a031916815260200191505b50838103825284818151815260200191508051906020019080838360005b83811015610b24578082015181840152602081019050610b09565b50505050905090810190601f168015610b515780820380516001836020036101000a031916815260200191505b509550505050505060405180910390a1505050565b828054600181600116156101000203166002900490600052602060002090601f016020900481019282601f10610ba757805160ff1916838001178555610bd5565b82800160010185558215610bd5579182015b82811115610bd4578251825591602001919060010190610bb9565b5b509050610be29190610c66565b5090565b828054600181600116156101000203166002900490600052602060002090601f016020900481019282601f10610c2757805160ff1916838001178555610c55565b82800160010185558215610c55579182015b82811115610c54578251825591602001919060010190610c39565b5b509050610c629190610c66565b5090565b610c8891905b80821115610c84576000816000905550600101610c6c565b5090565b9056fea165627a7a723058208f1bdba193f198535c22845a05f44c0583e0ae5392c3a4576c9ee9aac19dc8b80029",
  "source": "pragma solidity ^0.5.6;\n\ncontract Equivalents {\n\n    struct Record {\n        address owner;\n        string name;\n        string description;\n    }\n\n    mapping(uint64 => Record) internal records;\n    uint64 public countRecords;\n\n    event Added(uint64 index, string name, string description);\n    event EditedDescription(uint64 index, string name, string description);\n\n    constructor() public {\n        countRecords = 0;\n    }\n    /// @notice Get record by name\n    function getRecord(uint64 index) public view returns (address, string memory, string memory) {\n        return (records[index].owner, records[index].name, records[index].description);\n    }\n\n    /// @notice Add some record to contract\n    function add(string memory name, string memory description) public {\n        uint64 index = countRecords;\n        countRecords = countRecords + 1;\n        records[index] = Record(msg.sender, name, description);\n        emit Added(index, name, description);\n    }\n\n    /// @notice Edit own record\n    function edit(uint64 index, string memory name, string memory description) public {\n        require(index < countRecords);\n        require(records[index].owner == msg.sender);\n        records[index].name = name;\n        records[index].description = description;\n        emit EditedDescription(index, name, description);\n    }\n}",
  "sourcePath": "/home/paddle-5/workspace/eth-contract-equivalents/contracts/Equivalents.sol",
  "compiler": {
    "name": "solc",
    "version": "0.5.6+commit.b259423e.Emscripten.clang"
  },
  "schemaVersion": "3.0.3",
  "updatedAt": "2019-03-22T11:53:56.533Z",
  "devdoc": {
    "methods": {}
  },
  "userdoc": {
    "methods": {
      "add(string,string)": {
        "notice": "Add some record to contract"
      },
      "edit(uint64,string,string)": {
        "notice": "Edit own record"
      },
      "getRecord(uint64)": {
        "notice": "Get record by name"
      }
    }
  }
}